:020000040800F2
:100000008005002001010008EB1B0008071A00080A
:10001000E91B0008490300089F1E000800000000BB
:10002000000000000000000000000000EF1B0008BE
:100030009B06000800000000ED1B0008491D000899
:100040001B0100081B0100081B0100081B01000820
:100050001B0100081B0100081B0100081B01000810
:100060001B0100081B0100081B01000865060008B1
:100070001B0100081B0100081B0100081B010008F0
:100080001B0100081B0100081B0100081B010008E0
:100090001B0100081B0100081B0100081B010008D0
:1000A0001B0100081B0100081B0100081B010008C0
:1000B0001B0100081B0100081B0100081B010008B0
:1000C0001B0100081B0100081B0100081B010008A0
:1000D0001B0100081B0100081B0100081B01000890
:1000E0001B0100081B0100081B010008DFF80CD0F1
:1000F00000F02AF800480047F91E0008800500209B
:100100000648804706480047FEE7FEE7FEE7FEE7B1
:10011000FEE7FEE7FEE7FEE7FEE7FEE7C51D000897
:10012000ED000008D2B201E000F8012B491EFBD21D
:1001300070470022F6E710B513460A4604461946F2
:10014000FFF7F0FF204610BD064C074D06E0E068C3
:1001500040F0010394E8070098471034AC42F6D30E
:10016000FFF7C8FF681F0008881F000870B5044625
:1001700000688168C943C9071CD1816821F0010169
:10018000816000F0DBFF05460FE000BF00F0D6FF06
:10019000401B022809D9A06A40F01000A062E06A62
:1001A00040F00100E062012070BD20688068C0431B
:1001B000C007EBD0002070BD10B50146406A826ACE
:1001C00012F0500F05D0006A026BBDE810400846DF
:1001D0001047816A41F40071816201688968C1F346
:1001E000424107290CD1017B51B9816A21F4807108
:1001F0008162816AC90403D4816A41F0010181628C
:1002000000F0CCFA10BD10B5406A816A41F040019F
:100210008162C16A41F00401C16200F033FB10BD8C
:1002200010B5406A00F0BBFA10BD0000F8B500261A
:100230000446009600688168C943C90728D08168D0
:1002400041F001018160134813490068B0FBF1F0EF
:1002500000E0401E00900028FBD100F06FFF054633
:1002600011E000BF00F06AFF401B02280BD9A06A12
:1002700040F01000A062E06A40F00100E06284F803
:1002800024600120F8BD20688068C043C007E9D120
:100290000020F8BD5000002040420F002DE9F05F23
:1002A00001F0B2FBDFF89CA000254FF07E76DFF86E
:1002B0008CB0DFF88C8037030AF120044FF4FA7910
:1002C000CBF80060C8F800701D48FF21103800F01E
:1002D000BDFD01F099FB1B49082201F1700000F0FF
:1002E000C5FB052000F0A0FD0020514654F8202059
:1002F00051F820301A4444F82020401CC0B208288D
:10030000F4D31048703000F037FC0E48703000F025
:1003100047FA01F0E7FB6D1CADB249468D42CFD3E1
:100320005FF0000054F82020B2FBF1F244F82020E6
:10033000401CC0B20828F5D3BDE8F09F100C014066
:100340001008014054000020FEE700002DE9FF479F
:10035000DFF8E4904FF40041484600F077FDFF21BC
:10036000484600F073FDDFF8D4804FF47E773946BD
:10037000404600F06BFD48F2FF0500222946484642
:1003800000F0D7FE00223946404600F0D2FE00952C
:100390000226002401250396CDE90154694648460A
:1003A00000F0D2FD00970396CDE90154694640461E
:1003B00000F0CAFD21493804103108601E490003CD
:1003C00010310860FF21484600F040FD01F01CFBA1
:1003D0001B49082201F1700000F048FB052000F0E5
:1003E00023FD1748703000F0C7FB1548703000F04F
:1003F000D7F9134B002003F1200202F1200100BFC6
:1004000053F8204052F82050641B41F82040401C13
:10041000C0B20828F4D30B4A082010705FF0000027
:1004200051F82030642B02DD1070BDE8FF87401CBE
:10043000C0B20828F4D3F8E700080140000C0140DE
:1004400054000020000000202DE9F047294D012232
:10045000FF21284600F06DFE4FF4004400222146A3
:10046000284600F066FE4FF47E7500222946224899
:1004700000F05FFE4FF4FA7000F0D6FC1D4E4FF412
:100480007F00103630603460DFF86C9009F110099D
:10049000C9F80050DFF86480002408F1200720E04C
:1004A000FCB138F824000104C9F800105FF0000521
:1004B00057F8250030600A2000F0B6FC37F8250018
:1004C000000430606D1CEDB2082DF1D374B158F802
:1004D0002410C9F80010641CE4B2082CE0D3BDE875
:1004E000F087B8F8001009043160DFE7D8F80000A1
:1004F0003060F0E700080140000C014004000020DB
:100500002DE9F047534E4FF4004A8CB05146304627
:1005100000F09CFCDFF840914FF47E752946484678
:1005200000F094FCFF21304600F090FC002405947C
:10053000069407942246FF213046089400F0F9FD06
:1005400000222946484600F0F4FD48F2FF0001274A
:10055000CDE905074FF00208CDE9074805A9304667
:1005600000F0F2FCCDE9067405A94846CDF82080DC
:10057000059500F0E9FC0022FF21304600F0D9FD8E
:1005800001225146304600F0D4FD0122294648465A
:1005900000F0CFFD642001F0A3FC5146304600F08E
:1005A00055FC2946484600F051FCCDE905A4032737
:1005B000CDE9074705A9304600F0C6FCCDE9055452
:1005C000CDE9074705A9484600F0BEFC234BB246DB
:1005D000234F0FCB8DE80F0000254FF47A786E463D
:1005E000002408E03CB137F8240081B2484600F00E
:1005F0009BFD98B90CE0388881B2504600F094FD1C
:1006000060B9BDF80000404508D1ADF8005005E0E4
:1006100036F81400404501D126F81450641CE4B2A9
:10062000082CDFD36D1CADB24545D9D30C49082049
:10063000091F48705FF0000036F81020642A03D2CA
:1006400048700CB0BDE8F087401CC0B20828F3D356
:10065000F7E7000000080140000C0140481F0008B7
:1006600004000020014800F0CFBA00003C01002047
:1006700030B590F840500124AC40C56B6C60046804
:1006800063604368102B036803D099600068C26000
:1006900030BD9A600068C16030BD704772B6FEE739
:1006A000F8B50024009490F824202546012A12D0A1
:1006B000012280F824204A681F23072A0DD20668E9
:1006C000776B521E02EB820293409F430B6893406C
:1006D0001F43776319E00220F8BD06680D2A0AD28D
:1006E000376BD21F02EB820293409F430B6893400B
:1006F0001F43376309E0F76A0D3A02EB8202934029
:100700009F430B6893401F43F7620A6807230668FC
:100710000A2A0AD3F7680A3A02EB420293409F433F
:100720008B6893401F43F76008E0376902EB420291
:1007300093409F438B6893401F4337610A68102A98
:1007400001D0112A20D1124B02689A4217D1936826
:100750001B0219D4936843F40003936009681029BD
:1007600012D10C490C4A0968B1FBF2F101EB81018D
:10077000490000E0491E00910029FBD104E0816A94
:1007800041F020018162012480F824502046F8BD08
:10079000002401405000002040420F007047704785
:1007A00070B504000BD0A06A40F00200A0622046A1
:1007B000FFF7DCFC06004FF0000502D05AE00120F4
:1007C00070BD21686FF01F000860206841682B4AE7
:1007D0001140416020688168294A11408160206889
:1007E000C16801F07F41C1602068016901F04041AA
:1007F0000161206841696FF30B01416120688169E3
:100800006FF30B0181612068C1696FF30B01C16156
:100810002068016A6FF30B0101622068416A6FF37F
:100820000B0141622068816A6FF30B0181622068CD
:10083000C16A01F07F41C1622068C16A01F07F4155
:10084000C1622068016B01F0404101632068416B87
:1008500001F0404141632068816B6FF315018163B2
:100860002068816B6FF315018163204600F09AF8D0
:10087000E562A56284F82450304670BD00003FFF59
:10088000F00601FF704700002DE9F0414FF000072E
:1008900004003D467ED0A06A002628B9E66284F8AE
:1008A0002460204600F09AF82046FFF75FFCA16A1A
:1008B000C90600D420B1A06A40F01000A06269E02F
:1008C000A16A21F4885141F00201A1626268E169E4
:1008D000237B0A4347EA43010A43A1684FF4807728
:1008E000B94209D0012907D05FF0000194F814C083
:1008F000BCF1010F02D00AE03946F7E7F3B1A36A71
:1009000043F02003A362E36A43F00103E362236838
:10091000D3F804C02CF4694C4CEA010CC3F804C0B1
:1009200021688B68DFF870C003EA0C0313438B6007
:10093000A168B9420BD0012909D00CE0DFF85CC0F6
:10094000A3690CEB43330B4343F40061DFE7218AD7
:100950000D05A5F580152168CB6A23F470032B43A0
:10096000CB62216889680E4B1940914208D1E6623A
:10097000A16A21F0020141F00101A162BDE8F0810C
:10098000A06A20F0020040F01000A062E06A40F08F
:100990000100E0620120F1E7FDF7E1FF00E0FFFF69
:1009A000FE0E1FFF10B504460068094988420DD1AC
:1009B0000848816921F400718161FF21064800F037
:1009C00045FA206ABDE8104000F0F0B810BD000004
:1009D00000240140001002400008014070B586B0BC
:1009E00000250646009501950295039500681A4971
:1009F00088422ED11949886940F40070886188695D
:100A000000F400700490886940F0040088618869EF
:100A1000694600F004000490FF200090032001903C
:100A20000F4800F091FA104C0E48C4E900058020F0
:100A3000C4E9025080002061800060612020C4E988
:100A40000605204600F08AF908B1FFF727FE346258
:100A5000666206B070BD0000002401400010024034
:100A600000080140080002403C0100202DE9F04749
:100A7000894604463B4900683B4F0E1D904688421C
:100A800001D0B84207D1306810F4702F03D001258F
:100A90002846BDE8F08794F8240001280CD00120F6
:100AA00084F824002046FFF7C1FB05004FF000004A
:100AB00004D084F82400EBE70220EAE7A16A40F6BC
:100AC0000162914341F48071A1622168B94218D159
:100AD000326812F4702F14D0A16A41F48011A1621F
:100AE0003168490505D5A16A21F4005141F48051CE
:100AF000A162A16AC9040AD5E16A21F00601E16296
:100B000006E0A26A22F48012A2624968E9E7E06284
:100B100084F82400216A15488862216A1448C86252
:100B2000216A1448086321686FF002000860206899
:100B3000816841F480718160216843464A464C31A6
:100B4000206A00F039F920688168C1F34241072921
:100B5000816803D041F48011816099E741F4A001DC
:100B6000FAE700000024014000280140B901000814
:100B7000210200080702000810B5044690F824007E
:100B8000012807D0012084F824002046FFF7EEFA60
:100B900010B107E0022010BDA16A21F4885141F094
:100BA0000101A162002184F8241010BD10B528B302
:100BB00001680A6822F001020A60026800211160DF
:100BC00002685160026891600268D1600C4B026853
:100BD00001241A441423B2FBF3F29300094AC0E93A
:100BE0000F239C4054608162C16201634163816351
:100BF00080F8211080F82010002010BD012010BDC9
:100C0000F8FFFDBF000002402DE9F05FC16B0C68EA
:100C100001680B68D0F840C0042202FA0CF2494D7A
:100C2000DFF824A1494E4A4FDFF828B1DFF828E168
:100C300022422CD05A072AD50A68920603D40A68A1
:100C400022F004020A600168A94201D1042219E0DD
:100C5000514501D1402215E0B14202D14FF48062EA
:100C600010E0B94202D14FF480420BE0594502D165
:100C70004FF4802206E0714502D14FF4800201E07A
:100C80004FF080622F4908394A60C16A3BE04FF05B
:100C9000020808FA0CF818EA040F4FF000094FF0A8
:100CA000010235D05FEA837832D50B689B0605D404
:100CB0000B6823F00A030B6080F821200168A94229
:100CC00001D1022219E0514501D1202215E0B142A3
:100CD00002D14FF4007210E0B94202D14FF4005239
:100CE0000BE0594502D14FF4003206E0714502D1C4
:100CF0004FF4001201E04FF00072124908394A60C7
:100D000080F82090816A00291AD0BDE8F05F08477A
:100D1000082505FA0CF5254212D01B0710D50B68E3
:100D200023F00E030B6090F84010C36B02FA01F140
:100D30005960826380F8212080F82090016BE2E7FF
:100D4000BDE8F09F080002401C0002403000024055
:100D500044000240580002406C00024030B528B305
:100D600008C8134914221944B1FBF2F18900C16388
:100D700010498163022141771A6843F6F0718A4372
:100D8000D0E900142143D0E902452C4321430469F2
:100D9000214344692143846921431143196000219F
:100DA0004163012242770177084630BD012030BD02
:100DB000F8FFFDBF0000024070B5044690F8200027
:100DC000002501280CD0012084F8200094F821602F
:100DD0000020012E06D084F820000225284670BD90
:100DE000022070BD022684F82160A0632068066896
:100DF00026F0010606602046FFF73AFCE06A00286C
:100E00002068016802D041F00E0106E021F00401E3
:100E100001602068016841F00A01016020680168F2
:100E200041F001010160D9E770B5044600F086F990
:100E30000546601C02D004480078044400F07EF9A6
:100E4000401BA042FAD370BD440000202DE9F043BE
:100E50000023374F0F2566E001229A400A4060D0F8
:100E600023F00304E619D6F808809C074FEA147CA7
:100E700005FA0CF909EA0804DFF8B880404502D108
:100E80004FF0000816E0DFF8B080404502D14FF087
:100E900001080FE0DFF8A480404502D14FF00208BE
:100EA00008E0DFF89C80404502D14FF0030801E0E4
:100EB0004FF0040808FA0CF8A04515D1D6F808C080
:100EC0002CEA090CC6F808C01E4E346894433460FE
:100ED000341D266896432660241D266896432660A6
:100EE000241D266896432660FF2A01D8064601E0A5
:100EF00000F104064FEA830401D9A4F12004D6F8D6
:100F000000C005FA04F82CEA080C4FF0040808FAAF
:100F100004F84CEA080CC6F800C0C46824EA0204CD
:100F2000C46003F1010331FA03F295D1BDE8F08307
:100F30000000014000080140000C01400010014089
:100F400000140140000401402DE9F84FDFF8B8918A
:100F5000002409F1040A0AF1040B23460F270BF1C0
:100F6000040EC9E00125A5402A40AA427DD1674E62
:100F7000D1F804C0ACEB0608B44532D014DCBCF1A7
:100F8000030F3AD009DCBCF1000F2AD0BCF1010FED
:100F90001CD0BCF1020F31D11DE0BCF1110F17D0F4
:100FA000BCF1120F2AD119E0B8F5881F19D006DC60
:100FB000B8F5803F15D0B8F5801F1FD111E0B8F506
:100FC000001F0ED0B8F5041F18D10AE0CB6815E059
:100FD000CB681B1D12E0CB6808330FE0CB680C33E5
:100FE0000CE08B682BB1012B4FF0080303D0456157
:100FF00004E0042302E0056100E00023FF2A01D899
:10100000064601E000F104064FEA840501D9A5F186
:101010002005D6F8008007FA05FC28EA0C0803FA38
:1010200005F548EA0508C6F800804D68ED0062D570
:10103000374DAE6946F00106AE61AD6924F0030696
:1010400005F001050095334D06EB050CDCF8085062
:10105000A607360F07FA06F825EA0805DFF8B88074
:10106000404503D14FF0000817E044E0DFF8AC80C2
:10107000404502D14FF001080FE0DFF8A480404561
:1010800002D14FF0020808E0DFF89880404502D115
:101090004FF0030801E04FF0040808FA06F848EAA8
:1010A0000508CCF808804D68D9F80060ED034D467E
:1010B00001D5164300E096432E604D68DAF80060D3
:1010C000AD03554601D5164300E096432E604D68AA
:1010D000DBF80060ED025D4601D5164300E0964363
:1010E0002E604D68DEF80060AD02754601D51643EE
:1010F00000E096432E60641C0D682A46E5407FF4AC
:1011000031AFBDE8F88F000000040140000011106D
:10111000001002400000014000080140000C0140A6
:1011200000100140001401408068084000D00120F8
:1011300070470AB1016170470904FBE70148806804
:101140007047000044000020024881680278114482
:101150008160704744000020074810B5016841F0E5
:1011600010010160032000F075F8002000F006F87F
:1011700000F024F8002010BD0020024070B50D4D95
:1011800004464FF47A712878B1FBF0F00A490968F7
:10119000B1FBF0F000F042FB48B9102C07D200225E
:1011A0002146501E00F036F800206C6070BD012012
:1011B00070BD000044000020500000200C4808B51D
:1011C000816941F001018161816901F001010091B2
:1011D000C16941F08051C161C06900F08050009048
:1011E0000448416821F0E06141F00071416008BDB0
:1011F0000010024000000140002809DB00F01F023F
:10120000012191404009800000F1E020C0F8001168
:1012100070470000F0B40E4B1B680C46C3F302236A
:10122000C3F10705042D00D90425191D072901D292
:10123000002300E0DB1E012606FA05F1491E2140CD
:1012400099409E40761E16403143F0BC00F028BE07
:101250000CED00E0064900F0070208684FF6FF03B6
:10126000184040EA0220034A10430860704700001B
:101270000CED00E00000FA052DE9F8430546007882
:10128000354CC00754D0E0690026C00008D4E0699E
:1012900040F08050E061E069012600F0805000904D
:1012A0002E480168C90512D40168804641F4807156
:1012B0000160FFF743FF074605E000BFFFF73EFF71
:1012C000C01B642823D8D8F80000C005F6D5206AD2
:1012D00010F4407021D0A98801F4407181421CD0E3
:1012E000206A1F49012220F440700A6000220A602F
:1012F0002062C00711D0FFF721FF074641F288386E
:1013000008E000BFFFF71AFFC11B414502D90320C7
:10131000BDE8F883206A8007F4D5206A696820F464
:101320004070084320621EB1E06920F08050E06107
:101330002878800705D56068A96820F440400843F4
:1013400060602878C00605D56068E96820F48000F0
:10135000084360600020DBE700100240007000409E
:10136000400442422DE9F0470F46050061D0434E4C
:10137000306800F00700B84209D2306820F007005A
:1013800038433060306800F00700B84251D1286817
:101390003B4C810712D5400703D5606840F4E060FC
:1013A00060602878000703D5606840F46050606092
:1013B0006068A96820F0F000084360602878C007E2
:1013C00028D06868012810D02168022810D0890729
:1013D00000292EDA616821F0030101436160FFF703
:1013E000ADFE804641F288390DE021688903EFE7C0
:1013F0008901EDE7FFF7A2FEA0EB0801494502D9FC
:101400000320BDE8F0876068696800F00C00B0EB6D
:10141000810FEFD1306800F00700B8420BD9306877
:1014200020F0070038433060306800F00700B84211
:1014300001D00120E5E72878400705D56068E96814
:1014400020F4E060084360602878000706D56068F3
:10145000296920F4605040EAC100606000F018F88B
:101460006168084AC1F30311515CC840064908602D
:1014700006480068FFF782FE0020C2E70020024015
:1014800000100240581F00085000002048000020B3
:1014900012A185B00FC98DE80F0014A0144A00688E
:1014A00004905168134801F00C03042B10D0082B52
:1014B0000ED1C1F38343C9031DF803000AD5516857
:1014C00004AAC1F34041515C0A4A5043B0FBF1F019
:1014D00005B0704708494843FAE7000002030405D5
:1014E000060708090A0B0C0D0E0F10100102000070
:1014F0000010024000127A0000093D002DE9F84F6B
:10150000040070D02078C04DC00749D06868C0F38F
:101510008100012807D06868C0F38100022809D142
:101520006868C00306D52868800339D5606800283C
:10153000E7D035E06068B0F5803F0BD010B1B0F572
:10154000A02F11D0286820F480302860286820F46B
:10155000802002E0286840F480302860606890B104
:10156000FFF7ECFD06460AE0286840F4802028607A
:10157000F0E700BFFFF7E2FD801B642873D82868FE
:101580008003F7D50CE0FFF7D9FD064605E000BF64
:10159000FFF7D4FD801B6428F0D828688003F7D4B7
:1015A00020789A4E80074FF001094FF0000839D596
:1015B000686810F00C0F07D06868C0F3810002283B
:1015C00009D16868C00306D42868800714D520694B
:1015D000012808D110E02069B0B1C6F80090FFF7EB
:1015E000ADFD074605E00AE1FFF7A8FDC01B022894
:1015F000C4D828688007F7D52868616920F0F8000A
:1016000040EAC10028600DE0C6F80080FFF796FDB3
:10161000074604E0FFF792FDC01B022823D8286884
:101620008007F7D4207800072CD57948A169D9B173
:10163000C0F80090FFF782FD074604E0FFF77EFD4B
:10164000C01B02280FD8686A8007F7D571484FF48D
:10165000FA510068B0FBF1F0009000BF0098411E05
:101660000091FAD20EE080E0C0F80080FFF766FD3E
:10167000074604E0FFF762FDC01B022875D8686AC0
:101680008007F7D42078400760D5E8690027C000BC
:1016900008D4E86940F08050E861E869012700F06B
:1016A000805000905C480168C90513D401688346E6
:1016B00041F480710160FFF741FD824606E000BF02
:1016C000FFF73CFDA0EB0A0064284ED8DBF80000D1
:1016D000C005F5D5E06801280AD008B1052813D067
:1016E000286A20F001002862286A20F0040002E045
:1016F000286A40F001002862E06841F2883B98B116
:10170000FFF71CFD82460BE0286A40F004002862C7
:10171000EEE700BFFFF712FDA0EB0A0159455AD8CA
:10172000286A8007F6D50CE0FFF708FD824605E041
:10173000FFF704FDA0EB0A0159454CD8286A800741
:10174000F6D41FB1E86920F08050E861E06988B301
:101750006968C1F38101022944D00228C6F860807B
:1017600004D0FFF7EBFC044638E034E0FFF7E6FC7A
:10177000074604E0FFF7E2FCC01B02282BD82868CC
:101780008001F7D4206AB0F5803F05D16868A16870
:1017900020F4003008436860D4E908010843696810
:1017A00021F4741108436860C6F86090FFF7C6FC26
:1017B000044606E025E000BFFFF7C0FC001B02283E
:1017C00009D828688001F7D51BE000BFFFF7B6FCF9
:1017D000001B022802D90320BDE8F88F2868800189
:1017E000F4D40EE00128F7D06868226A00F4803152
:1017F000914204D1616A00F47010884201D0012046
:10180000EAE70020E8E70000001002400000424242
:1018100080044242500000200070004010B5401E7D
:10182000B0F1807F01D3012010BD4FF0E024606152
:101830000F21601700F034FB0020A0610720206119
:10184000002010BD70B590F83C20012A26D001245C
:1018500080F83C40022280F83D2003685A689D6869
:1018600022F070060A6832435A600D4B02689A42B1
:1018700008D0B2F1804F05D00A4B9A4202D00A4BF1
:101880009A4204D1496825F080031943916080F899
:101890003D40002180F83C10084670BD022070BD1C
:1018A000002C0140000400400008004010B5040076
:1018B00003D094F83D0010B107E0012010BD0020D6
:1018C00084F83C00204600F01FF8022084F83D0018
:1018D000211D206800F078FA012084F8460084F881
:1018E0003E0084F83F0084F8400084F8410084F80A
:1018F000420084F8430084F8440084F8450084F8EA
:101900003D00002010BD000008B50068064988426F
:1019100008D10648816941F400618161806900F461
:101920000060009008BD0000002C01400010024043
:1019300070B5044690F83C00012817D0012584F8C2
:101940003C50022084F83D002068826822F0770233
:1019500022F47F4282600868502830D00DDC2028B5
:101960004DD005DC98B310283BD148E0022070BD73
:10197000302844D0402834D139E0602828D070285D
:1019800006D0B0F5805F2CD0B0F5005F29D10AE019
:10199000CB68D1E90121206800F04CFA2068816809
:1019A00041F0770109E0CB68D1E90121206800F01E
:1019B00041FA2068816841F48041816011E0CA6881
:1019C0004968206800F048FA5021206807E016E0D6
:1019D000CA684968206800F050FA6021206800F069
:1019E00033FA84F83D50002084F83C0070BDCA688A
:1019F0004968206800F030FA40212068EFE722684B
:101A000001461046EBE7FEE7FEB500253448009599
:101A100001953249029501608915816001240473A2
:101A20000575082606614FF460214560C161FEF727
:101A30002BFF08B172B6FEE7CDE90054694628488D
:101A40000294FEF72DFE08B172B6FEE70094022460
:101A5000694623480194FEF723FE08B172B6FEE7FB
:101A60000094032469461E480194FEF719FE08B14C
:101A700072B6FEE700940424694619480194FEF703
:101A80000FFE08B172B6FEE70094052469461448BB
:101A90000194FEF705FE08B172B6FEE70094062435
:101AA00069460F480194FEF7FBFD08B172B6FEE7E8
:101AB0000094072469460A480194FEF7F1FD08B135
:101AC00072B6FEE7CDE9004669460548FEF7E8FD37
:101AD000002801D072B6FEE7FEBD000000240140E0
:101AE000C40000202DE9F04385B000242148009473
:101AF000019402940394816941F02001816181691C
:101B000001F020010491816941F004018161816942
:101B100001F004010491816941F00801816180694B
:101B2000DFF8548000F0080048F2FF05049000221E
:101B300029464046FFF7FDFADFF840904FF47E77E4
:101B4000002239464846FFF7F4FA0095022601259F
:101B50000396CDE9015469464046FFF7F5F9009731
:101B60000396CDE9015469464846FFF7EDF905B003
:101B7000BDE8F0830010024000080140000C014065
:101B800010B586B000241748009401940294039481
:101B900004941349059401604721C0E901144FF6EC
:101BA000FF71C0E9031444618461FFF77FFE08B14F
:101BB00072B6FEE74FF48050009069460948FFF77F
:101BC000B7FE08B172B6FEE7049404A9054805946F
:101BD000FFF738FE002801D072B6FEE706B010BD50
:101BE000002C0140F4000020FEE7FEE7704770473C
:101BF0002DE9F04F8BB04FF400414F48FFF726F925
:101C00004FF47E7A51464D48FFF720F94C490126A2
:101C1000DFF830814878082809D20A78082A06D2E5
:101C200038F8101006FA02F2114328F810104FF499
:101C30000047CDE906760024032506A93E48CDE9F4
:101C40000845FFF781F9DFF8F490CDE906A606A96B
:101C50004846CDE90845FFF777F90022FF213648CD
:101C6000FFF767FA012239463348FFF762FA01228B
:101C700051464846FFF75DFA2F4F314DA2461037C7
:101C800054462D1D4FF0030B3FE000243DE0DCB334
:101C9000601E072811D2CDF8109055F82400CDE928
:101CA000020802A9CDF814B02448FFF74DF935F821
:101CB00024000104214810300160224830F814103B
:101CC0001D480C30016014B14FF40040386000260C
:101CD0004FF4487000F004F9761CB6B2642EF7D3C6
:101CE00034B3164855F8241010300160641CE4B277
:101CF000082CCCD30AF1010000F0FF0ABAF1050F5D
:101D0000C3D30BB0BDE8F08FFFE74FF00009CDF86B
:101D1000109028684FF00108CDE9020802A9CDF81B
:101D200014B00648FFF710F9288800043860C4E7AB
:101D300028683860DAE7000000080140000C014024
:101D400000000020B4000020FFF7FEB930B593B0CA
:101D500028216846FEF7EDF914210AA8FEF7E9F9F3
:101D6000002501200F9510951195010412958DE81D
:101D7000230004904FF4E010CDE9081002240794EA
:101D80006846FFF7BBFB08B172B6FEE70AA90F2051
:101D900081E831004FF48060CDE90D0502210AA8E9
:101DA000FFF7E0FA08B172B6FEE74FF40040119079
:101DB0000F940FA8FFF760FA002801D072B6FEE773
:101DC00013B030BD70470000F0B50268164B174CD9
:101DD000174D4FF08047984205D0B84203D0A0423B
:101DE00001D0A84203D122F070064A6832439842DB
:101DF00005D0B84203D0A04201D0A84203D122F4BA
:101E00004074CA6822434C6922F080022243026077
:101E10008A68C2620A688262984201D109690163D4
:101E200001214161F0BD0000002C01400004004090
:101E30000008004010B5846842EA032224F47F447D
:101E40000A432243826010BD826822F070020A4376
:101E500042F007018160704710B5036A046A24F0FC
:101E600001040462846924F0F00444EA021423F0BB
:101E70000A020A438461026210BD10B5036A23F0AE
:101E8000100303628369046A23F4704343EA023255
:101E900024F0A00343EA01118261016210BDFEE754
:101EA0000907090E002804DB00F1E02080F8001487
:101EB000704700F00F0000F1E02080F8141D70471B
:101EC00002E008C8121F08C1002AFAD17047704703
:101ED000002001E001C1121F002AFBD17047000061
:101EE000044900220B685A6209684A6A8240FCD1A0
:101EF00070470000F400002008B5FFF72DF9FFF748
:101F000025FFFFF7EFFD0F48416941F001014161F5
:101F10004069002200F00100009011460B20FFF7FD
:101F200079F90B20FFF768F9FFF72AFEFEF78CFA24
:101F3000FEF7B4F9FEF70AFAFEF7E2FAFFF758FEE9
:101F4000F8E7000000100240E803E803E803E803B4
:101F5000E803E803E803E8030000000000000000D5
:101F60000102030406070809881F0008000000207A
:101F700054000000C01E0008DC1F000854000020B0
:101F80002C050000D01E000808080000008000009A
:101F900008000000100000002000000040000000C9
:101FA00080000000000100000002000001000000AD
:101FB0000200000004000000080000001000000003
:101FC0002000000040000000800000000100000030
:0C1FD00010000000000000000024F400DD
:04000005080000ED02
:00000001FF
